{
  "contractName": "PetRegistration",
  "abi": [
    {
      "constant": true,
      "inputs": [],
      "name": "petCount",
      "outputs": [
        {
          "internalType": "uint256",
          "name": "",
          "type": "uint256"
        }
      ],
      "payable": false,
      "stateMutability": "view",
      "type": "function"
    },
    {
      "constant": true,
      "inputs": [
        {
          "internalType": "uint256",
          "name": "",
          "type": "uint256"
        }
      ],
      "name": "pets",
      "outputs": [
        {
          "internalType": "string",
          "name": "name",
          "type": "string"
        },
        {
          "internalType": "string",
          "name": "breed",
          "type": "string"
        },
        {
          "internalType": "uint256",
          "name": "age",
          "type": "uint256"
        },
        {
          "internalType": "string",
          "name": "photoUrl",
          "type": "string"
        }
      ],
      "payable": false,
      "stateMutability": "view",
      "type": "function"
    },
    {
      "constant": false,
      "inputs": [
        {
          "internalType": "string",
          "name": "_name",
          "type": "string"
        },
        {
          "internalType": "string",
          "name": "_breed",
          "type": "string"
        },
        {
          "internalType": "uint256",
          "name": "_age",
          "type": "uint256"
        },
        {
          "internalType": "string",
          "name": "_photoUrl",
          "type": "string"
        }
      ],
      "name": "registerPet",
      "outputs": [],
      "payable": true,
      "stateMutability": "payable",
      "type": "function"
    }
  ],
  "bytecode": "0x608060405234801561001057600080fd5b506107f0806100206000396000f3fe6080604052600436106100345760003560e01c806333867b4214610039578063cd619f581461022c578063cfb869bf14610257575b600080fd5b61022a6004803603608081101561004f57600080fd5b810190808035906020019064010000000081111561006c57600080fd5b82018360208201111561007e57600080fd5b803590602001918460018302840111640100000000831117156100a057600080fd5b91908080601f016020809104026020016040519081016040528093929190818152602001838380828437600081840152601f19601f8201169050808301925050505050505091929192908035906020019064010000000081111561010357600080fd5b82018360208201111561011557600080fd5b8035906020019184600183028401116401000000008311171561013757600080fd5b91908080601f016020809104026020016040519081016040528093929190818152602001838380828437600081840152601f19601f82011690508083019250505050505050919291929080359060200190929190803590602001906401000000008111156101a457600080fd5b8201836020820111156101b657600080fd5b803590602001918460018302840111640100000000831117156101d857600080fd5b91908080601f016020809104026020016040519081016040528093929190818152602001838380828437600081840152601f19601f8201169050808301925050505050505091929192905050506103ea565b005b34801561023857600080fd5b50610241610518565b6040518082815260200191505060405180910390f35b34801561026357600080fd5b506102906004803603602081101561027a57600080fd5b810190808035906020019092919050505061051e565b60405180806020018060200185815260200180602001848103845288818151815260200191508051906020019080838360005b838110156102de5780820151818401526020810190506102c3565b50505050905090810190601f16801561030b5780820380516001836020036101000a031916815260200191505b50848103835287818151815260200191508051906020019080838360005b83811015610344578082015181840152602081019050610329565b50505050905090810190601f1680156103715780820380516001836020036101000a031916815260200191505b50848103825285818151815260200191508051906020019080838360005b838110156103aa57808201518184015260208101905061038f565b50505050905090810190601f1680156103d75780820380516001836020036101000a031916815260200191505b5097505050505050505060405180910390f35b662386f26fc10000341015610467576040517f08c379a000000000000000000000000000000000000000000000000000000000815260040180806020018281038252601e8152602001807f526567697374726174696f6e2066656520697320302e3031206574686572000081525060200191505060405180910390fd5b604051806080016040528085815260200184815260200183815260200182815250600080600154815260200190815260200160002060008201518160000190805190602001906104b8929190610716565b5060208201518160010190805190602001906104d5929190610716565b506040820151816002015560608201518160030190805190602001906104fc929190610716565b5090505060016000815480929190600101919050555050505050565b60015481565b6000602052806000526040600020600091509050806000018054600181600116156101000203166002900480601f0160208091040260200160405190810160405280929190818152602001828054600181600116156101000203166002900480156105ca5780601f1061059f576101008083540402835291602001916105ca565b820191906000526020600020905b8154815290600101906020018083116105ad57829003601f168201915b505050505090806001018054600181600116156101000203166002900480601f0160208091040260200160405190810160405280929190818152602001828054600181600116156101000203166002900480156106685780601f1061063d57610100808354040283529160200191610668565b820191906000526020600020905b81548152906001019060200180831161064b57829003601f168201915b505050505090806002015490806003018054600181600116156101000203166002900480601f01602080910402602001604051908101604052809291908181526020018280546001816001161561010002031660029004801561070c5780601f106106e15761010080835404028352916020019161070c565b820191906000526020600020905b8154815290600101906020018083116106ef57829003601f168201915b5050505050905084565b828054600181600116156101000203166002900490600052602060002090601f016020900481019282601f1061075757805160ff1916838001178555610785565b82800160010185558215610785579182015b82811115610784578251825591602001919060010190610769565b5b5090506107929190610796565b5090565b6107b891905b808211156107b457600081600090555060010161079c565b5090565b9056fea265627a7a72315820314938fcff499934c656ef7f68c4ccfab4dde60765922b48352b53518311ffb864736f6c63430005100032",
  "source": "pragma solidity ^0.5.0;\r\n\r\ncontract PetRegistration {\r\n    struct Pet {\r\n        string name;\r\n        string breed;\r\n        uint256 age;\r\n        string photoUrl;\r\n    }\r\n\r\n    mapping (uint256 => Pet) public pets;\r\n    uint256 public petCount;\r\n\r\n    function registerPet(string memory _name, string memory _breed, uint256 _age, string memory _photoUrl) public payable {\r\n        require(msg.value >= 0.01 ether, \"Registration fee is 0.01 ether\");\r\n\r\n        pets[petCount] = Pet({\r\n            name: _name,\r\n            breed: _breed,\r\n            age: _age,\r\n            photoUrl: _photoUrl\r\n        });\r\n\r\n        petCount++;\r\n    }\r\n}\r\n",
  "sourcePath": "C:\\Users\\sophi\\Desktop\\pet-shop-final\\contracts\\Registration.sol",
  "compiler": {
    "name": "solc",
    "version": "0.5.16+commit.9c3226ce.Emscripten.clang"
  },
  "schemaVersion": "3.4.13",
  "updatedAt": "2023-04-03T16:59:40.578Z",
  "devdoc": {
    "methods": {}
  },
  "userdoc": {
    "methods": {}
  }
}